{
  "_format": "hh-sol-artifact-1",
  "contractName": "DegenToken",
  "sourceName": "contracts/DegenToken.sol",
  "abi": [
    {
      "inputs": [],
      "stateMutability": "nonpayable",
      "type": "constructor"
    },
    {
      "anonymous": false,
      "inputs": [
        {
          "indexed": true,
          "internalType": "address",
          "name": "owner",
          "type": "address"
        },
        {
          "indexed": true,
          "internalType": "address",
          "name": "spender",
          "type": "address"
        },
        {
          "indexed": false,
          "internalType": "uint256",
          "name": "value",
          "type": "uint256"
        }
      ],
      "name": "Approval",
      "type": "event"
    },
    {
      "anonymous": false,
      "inputs": [
        {
          "indexed": true,
          "internalType": "address",
          "name": "previousOwner",
          "type": "address"
        },
        {
          "indexed": true,
          "internalType": "address",
          "name": "newOwner",
          "type": "address"
        }
      ],
      "name": "OwnershipTransferred",
      "type": "event"
    },
    {
      "anonymous": false,
      "inputs": [
        {
          "indexed": true,
          "internalType": "address",
          "name": "from",
          "type": "address"
        },
        {
          "indexed": true,
          "internalType": "address",
          "name": "to",
          "type": "address"
        },
        {
          "indexed": false,
          "internalType": "uint256",
          "name": "value",
          "type": "uint256"
        }
      ],
      "name": "Transfer",
      "type": "event"
    },
    {
      "inputs": [
        {
          "internalType": "address",
          "name": "_reciever",
          "type": "address"
        },
        {
          "internalType": "uint256",
          "name": "amount",
          "type": "uint256"
        }
      ],
      "name": "TransferToken",
      "outputs": [],
      "stateMutability": "nonpayable",
      "type": "function"
    },
    {
      "inputs": [
        {
          "internalType": "address",
          "name": "owner",
          "type": "address"
        },
        {
          "internalType": "address",
          "name": "spender",
          "type": "address"
        }
      ],
      "name": "allowance",
      "outputs": [
        {
          "internalType": "uint256",
          "name": "",
          "type": "uint256"
        }
      ],
      "stateMutability": "view",
      "type": "function"
    },
    {
      "inputs": [
        {
          "internalType": "address",
          "name": "spender",
          "type": "address"
        },
        {
          "internalType": "uint256",
          "name": "amount",
          "type": "uint256"
        }
      ],
      "name": "approve",
      "outputs": [
        {
          "internalType": "bool",
          "name": "",
          "type": "bool"
        }
      ],
      "stateMutability": "nonpayable",
      "type": "function"
    },
    {
      "inputs": [
        {
          "internalType": "address",
          "name": "account",
          "type": "address"
        }
      ],
      "name": "balanceOf",
      "outputs": [
        {
          "internalType": "uint256",
          "name": "",
          "type": "uint256"
        }
      ],
      "stateMutability": "view",
      "type": "function"
    },
    {
      "inputs": [
        {
          "internalType": "uint256",
          "name": "amount",
          "type": "uint256"
        }
      ],
      "name": "burn",
      "outputs": [],
      "stateMutability": "nonpayable",
      "type": "function"
    },
    {
      "inputs": [],
      "name": "decimals",
      "outputs": [
        {
          "internalType": "uint8",
          "name": "",
          "type": "uint8"
        }
      ],
      "stateMutability": "view",
      "type": "function"
    },
    {
      "inputs": [
        {
          "internalType": "address",
          "name": "spender",
          "type": "address"
        },
        {
          "internalType": "uint256",
          "name": "subtractedValue",
          "type": "uint256"
        }
      ],
      "name": "decreaseAllowance",
      "outputs": [
        {
          "internalType": "bool",
          "name": "",
          "type": "bool"
        }
      ],
      "stateMutability": "nonpayable",
      "type": "function"
    },
    {
      "inputs": [
        {
          "internalType": "address",
          "name": "spender",
          "type": "address"
        },
        {
          "internalType": "uint256",
          "name": "addedValue",
          "type": "uint256"
        }
      ],
      "name": "increaseAllowance",
      "outputs": [
        {
          "internalType": "bool",
          "name": "",
          "type": "bool"
        }
      ],
      "stateMutability": "nonpayable",
      "type": "function"
    },
    {
      "inputs": [
        {
          "internalType": "uint256",
          "name": "",
          "type": "uint256"
        }
      ],
      "name": "items",
      "outputs": [
        {
          "internalType": "string",
          "name": "name",
          "type": "string"
        },
        {
          "internalType": "uint256",
          "name": "redeemAmount",
          "type": "uint256"
        }
      ],
      "stateMutability": "view",
      "type": "function"
    },
    {
      "inputs": [
        {
          "internalType": "address",
          "name": "to",
          "type": "address"
        },
        {
          "internalType": "uint256",
          "name": "amount",
          "type": "uint256"
        }
      ],
      "name": "mint",
      "outputs": [],
      "stateMutability": "nonpayable",
      "type": "function"
    },
    {
      "inputs": [],
      "name": "name",
      "outputs": [
        {
          "internalType": "string",
          "name": "",
          "type": "string"
        }
      ],
      "stateMutability": "view",
      "type": "function"
    },
    {
      "inputs": [],
      "name": "owner",
      "outputs": [
        {
          "internalType": "address",
          "name": "",
          "type": "address"
        }
      ],
      "stateMutability": "view",
      "type": "function"
    },
    {
      "inputs": [
        {
          "internalType": "uint256",
          "name": "item",
          "type": "uint256"
        }
      ],
      "name": "redeem",
      "outputs": [],
      "stateMutability": "payable",
      "type": "function"
    },
    {
      "inputs": [],
      "name": "renounceOwnership",
      "outputs": [],
      "stateMutability": "nonpayable",
      "type": "function"
    },
    {
      "inputs": [],
      "name": "showStore",
      "outputs": [
        {
          "internalType": "string",
          "name": "",
          "type": "string"
        }
      ],
      "stateMutability": "pure",
      "type": "function"
    },
    {
      "inputs": [],
      "name": "symbol",
      "outputs": [
        {
          "internalType": "string",
          "name": "",
          "type": "string"
        }
      ],
      "stateMutability": "view",
      "type": "function"
    },
    {
      "inputs": [],
      "name": "totalSupply",
      "outputs": [
        {
          "internalType": "uint256",
          "name": "",
          "type": "uint256"
        }
      ],
      "stateMutability": "view",
      "type": "function"
    },
    {
      "inputs": [
        {
          "internalType": "address",
          "name": "to",
          "type": "address"
        },
        {
          "internalType": "uint256",
          "name": "amount",
          "type": "uint256"
        }
      ],
      "name": "transfer",
      "outputs": [
        {
          "internalType": "bool",
          "name": "",
          "type": "bool"
        }
      ],
      "stateMutability": "nonpayable",
      "type": "function"
    },
    {
      "inputs": [
        {
          "internalType": "address",
          "name": "from",
          "type": "address"
        },
        {
          "internalType": "address",
          "name": "to",
          "type": "address"
        },
        {
          "internalType": "uint256",
          "name": "amount",
          "type": "uint256"
        }
      ],
      "name": "transferFrom",
      "outputs": [
        {
          "internalType": "bool",
          "name": "",
          "type": "bool"
        }
      ],
      "stateMutability": "nonpayable",
      "type": "function"
    },
    {
      "inputs": [
        {
          "internalType": "address",
          "name": "newOwner",
          "type": "address"
        }
      ],
      "name": "transferOwnership",
      "outputs": [],
      "stateMutability": "nonpayable",
      "type": "function"
    }
  ],
  "bytecode": "0x60806040523480156200001157600080fd5b506040518060400160405280600581526020017f446567656e0000000000000000000000000000000000000000000000000000008152506040518060400160405280600381526020017f44474e000000000000000000000000000000000000000000000000000000000081525081600390816200008f919062000626565b508060049081620000a1919062000626565b505050620000c4620000b8620002de60201b60201c565b620002e660201b60201c565b60405180604001604052806040518060400160405280601481526020017f506f6b656d6f6e205261797175617a61204e465400000000000000000000000081525081526020016103e8815250600660006001815260200190815260200160002060008201518160000190816200013b919062000626565b506020820151816001015590505060405180604001604052806040518060400160405280601481526020017f506f6b656d6f6e205363657074696c65204e465400000000000000000000000081525081526020016101f481525060066000600281526020019081526020016000206000820151816000019081620001c0919062000626565b506020820151816001015590505060405180604001604052806040518060400160405280601281526020017f506f6b656d6f6e204b796f677265204e4654000000000000000000000000000081525081526020016101f48152506006600060038152602001908152602001600020600082015181600001908162000245919062000626565b506020820151816001015590505060405180604001604052806040518060400160405280601481526020017f506f6b656d6f6e20526573686972616d204e465400000000000000000000000081525081526020016101f481525060066000600481526020019081526020016000206000820151816000019081620002ca919062000626565b50602082015181600101559050506200070d565b600033905090565b6000600560009054906101000a900473ffffffffffffffffffffffffffffffffffffffff16905081600560006101000a81548173ffffffffffffffffffffffffffffffffffffffff021916908373ffffffffffffffffffffffffffffffffffffffff1602179055508173ffffffffffffffffffffffffffffffffffffffff168173ffffffffffffffffffffffffffffffffffffffff167f8be0079c531659141344cd1fd0a4f28419497f9722a3daafe3b4186f6b6457e060405160405180910390a35050565b600081519050919050565b7f4e487b7100000000000000000000000000000000000000000000000000000000600052604160045260246000fd5b7f4e487b7100000000000000000000000000000000000000000000000000000000600052602260045260246000fd5b600060028204905060018216806200042e57607f821691505b602082108103620004445762000443620003e6565b5b50919050565b60008190508160005260206000209050919050565b60006020601f8301049050919050565b600082821b905092915050565b600060088302620004ae7fffffffffffffffffffffffffffffffffffffffffffffffffffffffffffffffff826200046f565b620004ba86836200046f565b95508019841693508086168417925050509392505050565b6000819050919050565b6000819050919050565b60006200050762000501620004fb84620004d2565b620004dc565b620004d2565b9050919050565b6000819050919050565b6200052383620004e6565b6200053b62000532826200050e565b8484546200047c565b825550505050565b600090565b6200055262000543565b6200055f81848462000518565b505050565b5b8181101562000587576200057b60008262000548565b60018101905062000565565b5050565b601f821115620005d657620005a0816200044a565b620005ab846200045f565b81016020851015620005bb578190505b620005d3620005ca856200045f565b83018262000564565b50505b505050565b600082821c905092915050565b6000620005fb60001984600802620005db565b1980831691505092915050565b6000620006168383620005e8565b9150826002028217905092915050565b6200063182620003ac565b67ffffffffffffffff8111156200064d576200064c620003b7565b5b62000659825462000415565b620006668282856200058b565b600060209050601f8311600181146200069e576000841562000689578287015190505b62000695858262000608565b86555062000705565b601f198416620006ae866200044a565b60005b82811015620006d857848901518255600182019150602085019450602081019050620006b1565b86831015620006f85784890151620006f4601f891682620005e8565b8355505b6001600288020188555050505b505050505050565b6121ab806200071d6000396000f3fe60806040526004361061011f5760003560e01c80638da5cb5b116100a0578063a9d0e2e511610064578063a9d0e2e5146103fb578063bfb231d214610426578063db006a7514610464578063dd62ed3e14610480578063f2fde38b146104bd5761011f565b80638da5cb5b1461030257806395d89b411461032d5780639dd3045b14610358578063a457c2d714610381578063a9059cbb146103be5761011f565b806339509351116100e7578063395093511461021f57806340c10f191461025c57806342966c681461028557806370a08231146102ae578063715018a6146102eb5761011f565b806306fdde0314610124578063095ea7b31461014f57806318160ddd1461018c57806323b872dd146101b7578063313ce567146101f4575b600080fd5b34801561013057600080fd5b506101396104e6565b604051610146919061150f565b60405180910390f35b34801561015b57600080fd5b50610176600480360381019061017191906115ca565b610578565b6040516101839190611625565b60405180910390f35b34801561019857600080fd5b506101a161059b565b6040516101ae919061164f565b60405180910390f35b3480156101c357600080fd5b506101de60048036038101906101d9919061166a565b6105a5565b6040516101eb9190611625565b60405180910390f35b34801561020057600080fd5b506102096105d4565b60405161021691906116d9565b60405180910390f35b34801561022b57600080fd5b50610246600480360381019061024191906115ca565b6105dd565b6040516102539190611625565b60405180910390f35b34801561026857600080fd5b50610283600480360381019061027e91906115ca565b610614565b005b34801561029157600080fd5b506102ac60048036038101906102a791906116f4565b61062a565b005b3480156102ba57600080fd5b506102d560048036038101906102d09190611721565b610682565b6040516102e2919061164f565b60405180910390f35b3480156102f757600080fd5b506103006106ca565b005b34801561030e57600080fd5b506103176106de565b604051610324919061175d565b60405180910390f35b34801561033957600080fd5b50610342610708565b60405161034f919061150f565b60405180910390f35b34801561036457600080fd5b5061037f600480360381019061037a91906115ca565b61079a565b005b34801561038d57600080fd5b506103a860048036038101906103a391906115ca565b610800565b6040516103b59190611625565b60405180910390f35b3480156103ca57600080fd5b506103e560048036038101906103e091906115ca565b610877565b6040516103f29190611625565b60405180910390f35b34801561040757600080fd5b5061041061089a565b60405161041d919061150f565b60405180910390f35b34801561043257600080fd5b5061044d600480360381019061044891906116f4565b6108ba565b60405161045b929190611778565b60405180910390f35b61047e600480360381019061047991906116f4565b610966565b005b34801561048c57600080fd5b506104a760048036038101906104a291906117a8565b610a31565b6040516104b4919061164f565b60405180910390f35b3480156104c957600080fd5b506104e460048036038101906104df9190611721565b610ab8565b005b6060600380546104f590611817565b80601f016020809104026020016040519081016040528092919081815260200182805461052190611817565b801561056e5780601f106105435761010080835404028352916020019161056e565b820191906000526020600020905b81548152906001019060200180831161055157829003601f168201915b5050505050905090565b600080610583610b3b565b9050610590818585610b43565b600191505092915050565b6000600254905090565b6000806105b0610b3b565b90506105bd858285610d0c565b6105c8858585610d98565b60019150509392505050565b60006012905090565b6000806105e8610b3b565b90506106098185856105fa8589610a31565b6106049190611877565b610b43565b600191505092915050565b61061c61100e565b610626828261108c565b5050565b8061063433610682565b1015610675576040517f08c379a000000000000000000000000000000000000000000000000000000000815260040161066c906118f7565b60405180910390fd5b61067f33826111e2565b50565b60008060008373ffffffffffffffffffffffffffffffffffffffff1673ffffffffffffffffffffffffffffffffffffffff168152602001908152602001600020549050919050565b6106d261100e565b6106dc60006113af565b565b6000600560009054906101000a900473ffffffffffffffffffffffffffffffffffffffff16905090565b60606004805461071790611817565b80601f016020809104026020016040519081016040528092919081815260200182805461074390611817565b80156107905780601f1061076557610100808354040283529160200191610790565b820191906000526020600020905b81548152906001019060200180831161077357829003601f168201915b5050505050905090565b806107a433610682565b10156107e5576040517f08c379a00000000000000000000000000000000000000000000000000000000081526004016107dc90611989565b60405180910390fd5b6107ef3382610578565b506107fb3383836105a5565b505050565b60008061080b610b3b565b905060006108198286610a31565b90508381101561085e576040517f08c379a000000000000000000000000000000000000000000000000000000000815260040161085590611a1b565b60405180910390fd5b61086b8286868403610b43565b60019250505092915050565b600080610882610b3b565b905061088f818585610d98565b600191505092915050565b60606040518060c00160405280608e81526020016120e8608e9139905090565b60066020528060005260406000206000915090508060000180546108dd90611817565b80601f016020809104026020016040519081016040528092919081815260200182805461090990611817565b80156109565780601f1061092b57610100808354040283529160200191610956565b820191906000526020600020905b81548152906001019060200180831161093957829003601f168201915b5050505050908060010154905082565b6000600660008381526020019081526020016000209050600081600001805461098e90611817565b9050116109d0576040517f08c379a00000000000000000000000000000000000000000000000000000000081526004016109c790611a87565b60405180910390fd5b80600101546109de33610682565b1015610a1f576040517f08c379a0000000000000000000000000000000000000000000000000000000008152600401610a1690611af3565b60405180910390fd5b610a2d3382600101546111e2565b5050565b6000600160008473ffffffffffffffffffffffffffffffffffffffff1673ffffffffffffffffffffffffffffffffffffffff16815260200190815260200160002060008373ffffffffffffffffffffffffffffffffffffffff1673ffffffffffffffffffffffffffffffffffffffff16815260200190815260200160002054905092915050565b610ac061100e565b600073ffffffffffffffffffffffffffffffffffffffff168173ffffffffffffffffffffffffffffffffffffffff1603610b2f576040517f08c379a0000000000000000000000000000000000000000000000000000000008152600401610b2690611b85565b60405180910390fd5b610b38816113af565b50565b600033905090565b600073ffffffffffffffffffffffffffffffffffffffff168373ffffffffffffffffffffffffffffffffffffffff1603610bb2576040517f08c379a0000000000000000000000000000000000000000000000000000000008152600401610ba990611c17565b60405180910390fd5b600073ffffffffffffffffffffffffffffffffffffffff168273ffffffffffffffffffffffffffffffffffffffff1603610c21576040517f08c379a0000000000000000000000000000000000000000000000000000000008152600401610c1890611ca9565b60405180910390fd5b80600160008573ffffffffffffffffffffffffffffffffffffffff1673ffffffffffffffffffffffffffffffffffffffff16815260200190815260200160002060008473ffffffffffffffffffffffffffffffffffffffff1673ffffffffffffffffffffffffffffffffffffffff168152602001908152602001600020819055508173ffffffffffffffffffffffffffffffffffffffff168373ffffffffffffffffffffffffffffffffffffffff167f8c5be1e5ebec7d5bd14f71427d1e84f3dd0314c0f7b2291e5b200ac8c7c3b92583604051610cff919061164f565b60405180910390a3505050565b6000610d188484610a31565b90507fffffffffffffffffffffffffffffffffffffffffffffffffffffffffffffffff8114610d925781811015610d84576040517f08c379a0000000000000000000000000000000000000000000000000000000008152600401610d7b90611d15565b60405180910390fd5b610d918484848403610b43565b5b50505050565b600073ffffffffffffffffffffffffffffffffffffffff168373ffffffffffffffffffffffffffffffffffffffff1603610e07576040517f08c379a0000000000000000000000000000000000000000000000000000000008152600401610dfe90611da7565b60405180910390fd5b600073ffffffffffffffffffffffffffffffffffffffff168273ffffffffffffffffffffffffffffffffffffffff1603610e76576040517f08c379a0000000000000000000000000000000000000000000000000000000008152600401610e6d90611e39565b60405180910390fd5b610e81838383611475565b60008060008573ffffffffffffffffffffffffffffffffffffffff1673ffffffffffffffffffffffffffffffffffffffff16815260200190815260200160002054905081811015610f07576040517f08c379a0000000000000000000000000000000000000000000000000000000008152600401610efe90611ecb565b60405180910390fd5b8181036000808673ffffffffffffffffffffffffffffffffffffffff1673ffffffffffffffffffffffffffffffffffffffff16815260200190815260200160002081905550816000808573ffffffffffffffffffffffffffffffffffffffff1673ffffffffffffffffffffffffffffffffffffffff168152602001908152602001600020600082825401925050819055508273ffffffffffffffffffffffffffffffffffffffff168473ffffffffffffffffffffffffffffffffffffffff167fddf252ad1be2c89b69c2b068fc378daa952ba7f163c4a11628f55a4df523b3ef84604051610ff5919061164f565b60405180910390a361100884848461147a565b50505050565b611016610b3b565b73ffffffffffffffffffffffffffffffffffffffff166110346106de565b73ffffffffffffffffffffffffffffffffffffffff161461108a576040517f08c379a000000000000000000000000000000000000000000000000000000000815260040161108190611f37565b60405180910390fd5b565b600073ffffffffffffffffffffffffffffffffffffffff168273ffffffffffffffffffffffffffffffffffffffff16036110fb576040517f08c379a00000000000000000000000000000000000000000000000000000000081526004016110f290611fa3565b60405180910390fd5b61110760008383611475565b80600260008282546111199190611877565b92505081905550806000808473ffffffffffffffffffffffffffffffffffffffff1673ffffffffffffffffffffffffffffffffffffffff168152602001908152602001600020600082825401925050819055508173ffffffffffffffffffffffffffffffffffffffff16600073ffffffffffffffffffffffffffffffffffffffff167fddf252ad1be2c89b69c2b068fc378daa952ba7f163c4a11628f55a4df523b3ef836040516111ca919061164f565b60405180910390a36111de6000838361147a565b5050565b600073ffffffffffffffffffffffffffffffffffffffff168273ffffffffffffffffffffffffffffffffffffffff1603611251576040517f08c379a000000000000000000000000000000000000000000000000000000000815260040161124890612035565b60405180910390fd5b61125d82600083611475565b60008060008473ffffffffffffffffffffffffffffffffffffffff1673ffffffffffffffffffffffffffffffffffffffff168152602001908152602001600020549050818110156112e3576040517f08c379a00000000000000000000000000000000000000000000000000000000081526004016112da906120c7565b60405180910390fd5b8181036000808573ffffffffffffffffffffffffffffffffffffffff1673ffffffffffffffffffffffffffffffffffffffff1681526020019081526020016000208190555081600260008282540392505081905550600073ffffffffffffffffffffffffffffffffffffffff168373ffffffffffffffffffffffffffffffffffffffff167fddf252ad1be2c89b69c2b068fc378daa952ba7f163c4a11628f55a4df523b3ef84604051611396919061164f565b60405180910390a36113aa8360008461147a565b505050565b6000600560009054906101000a900473ffffffffffffffffffffffffffffffffffffffff16905081600560006101000a81548173ffffffffffffffffffffffffffffffffffffffff021916908373ffffffffffffffffffffffffffffffffffffffff1602179055508173ffffffffffffffffffffffffffffffffffffffff168173ffffffffffffffffffffffffffffffffffffffff167f8be0079c531659141344cd1fd0a4f28419497f9722a3daafe3b4186f6b6457e060405160405180910390a35050565b505050565b505050565b600081519050919050565b600082825260208201905092915050565b60005b838110156114b957808201518184015260208101905061149e565b60008484015250505050565b6000601f19601f8301169050919050565b60006114e18261147f565b6114eb818561148a565b93506114fb81856020860161149b565b611504816114c5565b840191505092915050565b6000602082019050818103600083015261152981846114d6565b905092915050565b600080fd5b600073ffffffffffffffffffffffffffffffffffffffff82169050919050565b600061156182611536565b9050919050565b61157181611556565b811461157c57600080fd5b50565b60008135905061158e81611568565b92915050565b6000819050919050565b6115a781611594565b81146115b257600080fd5b50565b6000813590506115c48161159e565b92915050565b600080604083850312156115e1576115e0611531565b5b60006115ef8582860161157f565b9250506020611600858286016115b5565b9150509250929050565b60008115159050919050565b61161f8161160a565b82525050565b600060208201905061163a6000830184611616565b92915050565b61164981611594565b82525050565b60006020820190506116646000830184611640565b92915050565b60008060006060848603121561168357611682611531565b5b60006116918682870161157f565b93505060206116a28682870161157f565b92505060406116b3868287016115b5565b9150509250925092565b600060ff82169050919050565b6116d3816116bd565b82525050565b60006020820190506116ee60008301846116ca565b92915050565b60006020828403121561170a57611709611531565b5b6000611718848285016115b5565b91505092915050565b60006020828403121561173757611736611531565b5b60006117458482850161157f565b91505092915050565b61175781611556565b82525050565b6000602082019050611772600083018461174e565b92915050565b6000604082019050818103600083015261179281856114d6565b90506117a16020830184611640565b9392505050565b600080604083850312156117bf576117be611531565b5b60006117cd8582860161157f565b92505060206117de8582860161157f565b9150509250929050565b7f4e487b7100000000000000000000000000000000000000000000000000000000600052602260045260246000fd5b6000600282049050600182168061182f57607f821691505b602082108103611842576118416117e8565b5b50919050565b7f4e487b7100000000000000000000000000000000000000000000000000000000600052601160045260246000fd5b600061188282611594565b915061188d83611594565b92508282019050808211156118a5576118a4611848565b5b92915050565b7f496e73756666696369656e742062616c616e6365000000000000000000000000600082015250565b60006118e160148361148a565b91506118ec826118ab565b602082019050919050565b60006020820190508181036000830152611910816118d4565b9050919050565b7f536f7272792c204e6f7420656e6f75676820446567656e20746f6b656e73206160008201527f7661696c61626c65000000000000000000000000000000000000000000000000602082015250565b600061197360288361148a565b915061197e82611917565b604082019050919050565b600060208201905081810360008301526119a281611966565b9050919050565b7f45524332303a2064656372656173656420616c6c6f77616e63652062656c6f7760008201527f207a65726f000000000000000000000000000000000000000000000000000000602082015250565b6000611a0560258361148a565b9150611a10826119a9565b604082019050919050565b60006020820190508181036000830152611a34816119f8565b9050919050565b7f496e76616c69642072656465656d206974656d00000000000000000000000000600082015250565b6000611a7160138361148a565b9150611a7c82611a3b565b602082019050919050565b60006020820190508181036000830152611aa081611a64565b9050919050565b7f496e73756666696369656e742062616c616e636520746f2072656465656d0000600082015250565b6000611add601e8361148a565b9150611ae882611aa7565b602082019050919050565b60006020820190508181036000830152611b0c81611ad0565b9050919050565b7f4f776e61626c653a206e6577206f776e657220697320746865207a65726f206160008201527f6464726573730000000000000000000000000000000000000000000000000000602082015250565b6000611b6f60268361148a565b9150611b7a82611b13565b604082019050919050565b60006020820190508181036000830152611b9e81611b62565b9050919050565b7f45524332303a20617070726f76652066726f6d20746865207a65726f2061646460008201527f7265737300000000000000000000000000000000000000000000000000000000602082015250565b6000611c0160248361148a565b9150611c0c82611ba5565b604082019050919050565b60006020820190508181036000830152611c3081611bf4565b9050919050565b7f45524332303a20617070726f766520746f20746865207a65726f20616464726560008201527f7373000000000000000000000000000000000000000000000000000000000000602082015250565b6000611c9360228361148a565b9150611c9e82611c37565b604082019050919050565b60006020820190508181036000830152611cc281611c86565b9050919050565b7f45524332303a20696e73756666696369656e7420616c6c6f77616e6365000000600082015250565b6000611cff601d8361148a565b9150611d0a82611cc9565b602082019050919050565b60006020820190508181036000830152611d2e81611cf2565b9050919050565b7f45524332303a207472616e736665722066726f6d20746865207a65726f20616460008201527f6472657373000000000000000000000000000000000000000000000000000000602082015250565b6000611d9160258361148a565b9150611d9c82611d35565b604082019050919050565b60006020820190508181036000830152611dc081611d84565b9050919050565b7f45524332303a207472616e7366657220746f20746865207a65726f206164647260008201527f6573730000000000000000000000000000000000000000000000000000000000602082015250565b6000611e2360238361148a565b9150611e2e82611dc7565b604082019050919050565b60006020820190508181036000830152611e5281611e16565b9050919050565b7f45524332303a207472616e7366657220616d6f756e742065786365656473206260008201527f616c616e63650000000000000000000000000000000000000000000000000000602082015250565b6000611eb560268361148a565b9150611ec082611e59565b604082019050919050565b60006020820190508181036000830152611ee481611ea8565b9050919050565b7f4f776e61626c653a2063616c6c6572206973206e6f7420746865206f776e6572600082015250565b6000611f2160208361148a565b9150611f2c82611eeb565b602082019050919050565b60006020820190508181036000830152611f5081611f14565b9050919050565b7f45524332303a206d696e7420746f20746865207a65726f206164647265737300600082015250565b6000611f8d601f8361148a565b9150611f9882611f57565b602082019050919050565b60006020820190508181036000830152611fbc81611f80565b9050919050565b7f45524332303a206275726e2066726f6d20746865207a65726f2061646472657360008201527f7300000000000000000000000000000000000000000000000000000000000000602082015250565b600061201f60218361148a565b915061202a82611fc3565b604082019050919050565b6000602082019050818103600083015261204e81612012565b9050919050565b7f45524332303a206275726e20616d6f756e7420657863656564732062616c616e60008201527f6365000000000000000000000000000000000000000000000000000000000000602082015250565b60006120b160228361148a565b91506120bc82612055565b604082019050919050565b600060208201905081810360008301526120e0816120a4565b905091905056fe312e20506f6b656d6f6e205261797175617a61204e4654283130303020746f6b656e732920322e20506f6b656d6f6e205363657074696c65204e46542835303020746f6b656e732920332e20506f6b656d6f6e204b796f677265204e46542835303020746f6b656e732920342e20506f6b656d6f6e20526573686972616d204e46542831303020746f6b656e7329a264697066735822122007bda33525bd984c04ee390ec2874503c77c11b2be58426c72f506949e51fdc664736f6c63430008130033",
  "linkReferences": {},
  "deployedLinkReferences": {}
}