{
  "_format": "hh-sol-artifact-1",
  "contractName": "DegenToken",
  "sourceName": "contracts/DegenToken.sol",
  "abi": [
    {
      "inputs": [],
      "stateMutability": "nonpayable",
      "type": "constructor"
    },
    {
      "anonymous": false,
      "inputs": [
        {
          "indexed": true,
          "internalType": "address",
          "name": "owner",
          "type": "address"
        },
        {
          "indexed": true,
          "internalType": "address",
          "name": "spender",
          "type": "address"
        },
        {
          "indexed": false,
          "internalType": "uint256",
          "name": "value",
          "type": "uint256"
        }
      ],
      "name": "Approval",
      "type": "event"
    },
    {
      "anonymous": false,
      "inputs": [
        {
          "indexed": true,
          "internalType": "address",
          "name": "previousOwner",
          "type": "address"
        },
        {
          "indexed": true,
          "internalType": "address",
          "name": "newOwner",
          "type": "address"
        }
      ],
      "name": "OwnershipTransferred",
      "type": "event"
    },
    {
      "anonymous": false,
      "inputs": [
        {
          "indexed": true,
          "internalType": "address",
          "name": "from",
          "type": "address"
        },
        {
          "indexed": true,
          "internalType": "address",
          "name": "to",
          "type": "address"
        },
        {
          "indexed": false,
          "internalType": "uint256",
          "name": "value",
          "type": "uint256"
        }
      ],
      "name": "Transfer",
      "type": "event"
    },
    {
      "inputs": [
        {
          "internalType": "address",
          "name": "_receiver",
          "type": "address"
        },
        {
          "internalType": "uint256",
          "name": "amount",
          "type": "uint256"
        }
      ],
      "name": "TransferToken",
      "outputs": [],
      "stateMutability": "nonpayable",
      "type": "function"
    },
    {
      "inputs": [
        {
          "internalType": "address",
          "name": "owner",
          "type": "address"
        },
        {
          "internalType": "address",
          "name": "spender",
          "type": "address"
        }
      ],
      "name": "allowance",
      "outputs": [
        {
          "internalType": "uint256",
          "name": "",
          "type": "uint256"
        }
      ],
      "stateMutability": "view",
      "type": "function"
    },
    {
      "inputs": [
        {
          "internalType": "address",
          "name": "spender",
          "type": "address"
        },
        {
          "internalType": "uint256",
          "name": "amount",
          "type": "uint256"
        }
      ],
      "name": "approve",
      "outputs": [
        {
          "internalType": "bool",
          "name": "",
          "type": "bool"
        }
      ],
      "stateMutability": "nonpayable",
      "type": "function"
    },
    {
      "inputs": [
        {
          "internalType": "address",
          "name": "account",
          "type": "address"
        }
      ],
      "name": "balanceOf",
      "outputs": [
        {
          "internalType": "uint256",
          "name": "",
          "type": "uint256"
        }
      ],
      "stateMutability": "view",
      "type": "function"
    },
    {
      "inputs": [
        {
          "internalType": "uint256",
          "name": "amount",
          "type": "uint256"
        }
      ],
      "name": "burn",
      "outputs": [],
      "stateMutability": "nonpayable",
      "type": "function"
    },
    {
      "inputs": [],
      "name": "decimals",
      "outputs": [
        {
          "internalType": "uint8",
          "name": "",
          "type": "uint8"
        }
      ],
      "stateMutability": "view",
      "type": "function"
    },
    {
      "inputs": [
        {
          "internalType": "address",
          "name": "spender",
          "type": "address"
        },
        {
          "internalType": "uint256",
          "name": "subtractedValue",
          "type": "uint256"
        }
      ],
      "name": "decreaseAllowance",
      "outputs": [
        {
          "internalType": "bool",
          "name": "",
          "type": "bool"
        }
      ],
      "stateMutability": "nonpayable",
      "type": "function"
    },
    {
      "inputs": [
        {
          "internalType": "address",
          "name": "user",
          "type": "address"
        },
        {
          "internalType": "uint256",
          "name": "item",
          "type": "uint256"
        }
      ],
      "name": "getRedeemedItems",
      "outputs": [
        {
          "internalType": "uint256",
          "name": "",
          "type": "uint256"
        }
      ],
      "stateMutability": "view",
      "type": "function"
    },
    {
      "inputs": [
        {
          "internalType": "address",
          "name": "spender",
          "type": "address"
        },
        {
          "internalType": "uint256",
          "name": "addedValue",
          "type": "uint256"
        }
      ],
      "name": "increaseAllowance",
      "outputs": [
        {
          "internalType": "bool",
          "name": "",
          "type": "bool"
        }
      ],
      "stateMutability": "nonpayable",
      "type": "function"
    },
    {
      "inputs": [
        {
          "internalType": "uint256",
          "name": "",
          "type": "uint256"
        }
      ],
      "name": "items",
      "outputs": [
        {
          "internalType": "string",
          "name": "name",
          "type": "string"
        },
        {
          "internalType": "uint256",
          "name": "redeemAmount",
          "type": "uint256"
        }
      ],
      "stateMutability": "view",
      "type": "function"
    },
    {
      "inputs": [
        {
          "internalType": "address",
          "name": "to",
          "type": "address"
        },
        {
          "internalType": "uint256",
          "name": "amount",
          "type": "uint256"
        }
      ],
      "name": "mint",
      "outputs": [],
      "stateMutability": "nonpayable",
      "type": "function"
    },
    {
      "inputs": [],
      "name": "name",
      "outputs": [
        {
          "internalType": "string",
          "name": "",
          "type": "string"
        }
      ],
      "stateMutability": "view",
      "type": "function"
    },
    {
      "inputs": [],
      "name": "owner",
      "outputs": [
        {
          "internalType": "address",
          "name": "",
          "type": "address"
        }
      ],
      "stateMutability": "view",
      "type": "function"
    },
    {
      "inputs": [
        {
          "internalType": "uint256",
          "name": "item",
          "type": "uint256"
        }
      ],
      "name": "redeem",
      "outputs": [],
      "stateMutability": "payable",
      "type": "function"
    },
    {
      "inputs": [
        {
          "internalType": "address",
          "name": "",
          "type": "address"
        },
        {
          "internalType": "uint256",
          "name": "",
          "type": "uint256"
        }
      ],
      "name": "redeemedItems",
      "outputs": [
        {
          "internalType": "uint256",
          "name": "",
          "type": "uint256"
        }
      ],
      "stateMutability": "view",
      "type": "function"
    },
    {
      "inputs": [],
      "name": "renounceOwnership",
      "outputs": [],
      "stateMutability": "nonpayable",
      "type": "function"
    },
    {
      "inputs": [],
      "name": "showStore",
      "outputs": [
        {
          "internalType": "string",
          "name": "",
          "type": "string"
        }
      ],
      "stateMutability": "pure",
      "type": "function"
    },
    {
      "inputs": [],
      "name": "symbol",
      "outputs": [
        {
          "internalType": "string",
          "name": "",
          "type": "string"
        }
      ],
      "stateMutability": "view",
      "type": "function"
    },
    {
      "inputs": [],
      "name": "totalSupply",
      "outputs": [
        {
          "internalType": "uint256",
          "name": "",
          "type": "uint256"
        }
      ],
      "stateMutability": "view",
      "type": "function"
    },
    {
      "inputs": [
        {
          "internalType": "address",
          "name": "to",
          "type": "address"
        },
        {
          "internalType": "uint256",
          "name": "amount",
          "type": "uint256"
        }
      ],
      "name": "transfer",
      "outputs": [
        {
          "internalType": "bool",
          "name": "",
          "type": "bool"
        }
      ],
      "stateMutability": "nonpayable",
      "type": "function"
    },
    {
      "inputs": [
        {
          "internalType": "address",
          "name": "from",
          "type": "address"
        },
        {
          "internalType": "address",
          "name": "to",
          "type": "address"
        },
        {
          "internalType": "uint256",
          "name": "amount",
          "type": "uint256"
        }
      ],
      "name": "transferFrom",
      "outputs": [
        {
          "internalType": "bool",
          "name": "",
          "type": "bool"
        }
      ],
      "stateMutability": "nonpayable",
      "type": "function"
    },
    {
      "inputs": [
        {
          "internalType": "address",
          "name": "newOwner",
          "type": "address"
        }
      ],
      "name": "transferOwnership",
      "outputs": [],
      "stateMutability": "nonpayable",
      "type": "function"
    }
  ],
  "bytecode": "0x60806040523480156200001157600080fd5b506040518060400160405280600581526020017f446567656e0000000000000000000000000000000000000000000000000000008152506040518060400160405280600381526020017f44474e000000000000000000000000000000000000000000000000000000000081525081600390816200008f919062000626565b508060049081620000a1919062000626565b505050620000c4620000b8620002de60201b60201c565b620002e660201b60201c565b60405180604001604052806040518060400160405280601481526020017f506f6b656d6f6e205261797175617a61204e465400000000000000000000000081525081526020016103e8815250600660006001815260200190815260200160002060008201518160000190816200013b919062000626565b506020820151816001015590505060405180604001604052806040518060400160405280601481526020017f506f6b656d6f6e205363657074696c65204e465400000000000000000000000081525081526020016101f481525060066000600281526020019081526020016000206000820151816000019081620001c0919062000626565b506020820151816001015590505060405180604001604052806040518060400160405280601281526020017f506f6b656d6f6e204b796f677265204e4654000000000000000000000000000081525081526020016101f48152506006600060038152602001908152602001600020600082015181600001908162000245919062000626565b506020820151816001015590505060405180604001604052806040518060400160405280601481526020017f506f6b656d6f6e20526573686972616d204e465400000000000000000000000081525081526020016101f481525060066000600481526020019081526020016000206000820151816000019081620002ca919062000626565b50602082015181600101559050506200070d565b600033905090565b6000600560009054906101000a900473ffffffffffffffffffffffffffffffffffffffff16905081600560006101000a81548173ffffffffffffffffffffffffffffffffffffffff021916908373ffffffffffffffffffffffffffffffffffffffff1602179055508173ffffffffffffffffffffffffffffffffffffffff168173ffffffffffffffffffffffffffffffffffffffff167f8be0079c531659141344cd1fd0a4f28419497f9722a3daafe3b4186f6b6457e060405160405180910390a35050565b600081519050919050565b7f4e487b7100000000000000000000000000000000000000000000000000000000600052604160045260246000fd5b7f4e487b7100000000000000000000000000000000000000000000000000000000600052602260045260246000fd5b600060028204905060018216806200042e57607f821691505b602082108103620004445762000443620003e6565b5b50919050565b60008190508160005260206000209050919050565b60006020601f8301049050919050565b600082821b905092915050565b600060088302620004ae7fffffffffffffffffffffffffffffffffffffffffffffffffffffffffffffffff826200046f565b620004ba86836200046f565b95508019841693508086168417925050509392505050565b6000819050919050565b6000819050919050565b60006200050762000501620004fb84620004d2565b620004dc565b620004d2565b9050919050565b6000819050919050565b6200052383620004e6565b6200053b62000532826200050e565b8484546200047c565b825550505050565b600090565b6200055262000543565b6200055f81848462000518565b505050565b5b8181101562000587576200057b60008262000548565b60018101905062000565565b5050565b601f821115620005d657620005a0816200044a565b620005ab846200045f565b81016020851015620005bb578190505b620005d3620005ca856200045f565b83018262000564565b50505b505050565b600082821c905092915050565b6000620005fb60001984600802620005db565b1980831691505092915050565b6000620006168383620005e8565b9150826002028217905092915050565b6200063182620003ac565b67ffffffffffffffff8111156200064d576200064c620003b7565b5b62000659825462000415565b620006668282856200058b565b600060209050601f8311600181146200069e576000841562000689578287015190505b62000695858262000608565b86555062000705565b601f198416620006ae866200044a565b60005b82811015620006d857848901518255600182019150602085019450602081019050620006b1565b86831015620006f85784890151620006f4601f891682620005e8565b8355505b6001600288020188555050505b505050505050565b612323806200071d6000396000f3fe6080604052600436106101355760003560e01c80638da5cb5b116100ab578063a9d0e2e51161006f578063a9d0e2e51461044e578063bfb231d214610479578063c00aa3a5146104b7578063db006a75146104f4578063dd62ed3e14610510578063f2fde38b1461054d57610135565b80638da5cb5b1461035557806395d89b41146103805780639dd3045b146103ab578063a457c2d7146103d4578063a9059cbb1461041157610135565b806339509351116100fd578063395093511461023557806340c10f191461027257806342966c681461029b5780635ac36282146102c457806370a0823114610301578063715018a61461033e57610135565b806306fdde031461013a578063095ea7b31461016557806318160ddd146101a257806323b872dd146101cd578063313ce5671461020a575b600080fd5b34801561014657600080fd5b5061014f610576565b60405161015c9190611687565b60405180910390f35b34801561017157600080fd5b5061018c60048036038101906101879190611742565b610608565b604051610199919061179d565b60405180910390f35b3480156101ae57600080fd5b506101b761062b565b6040516101c491906117c7565b60405180910390f35b3480156101d957600080fd5b506101f460048036038101906101ef91906117e2565b610635565b604051610201919061179d565b60405180910390f35b34801561021657600080fd5b5061021f610664565b60405161022c9190611851565b60405180910390f35b34801561024157600080fd5b5061025c60048036038101906102579190611742565b61066d565b604051610269919061179d565b60405180910390f35b34801561027e57600080fd5b5061029960048036038101906102949190611742565b6106a4565b005b3480156102a757600080fd5b506102c260048036038101906102bd919061186c565b6106ba565b005b3480156102d057600080fd5b506102eb60048036038101906102e69190611742565b610712565b6040516102f891906117c7565b60405180910390f35b34801561030d57600080fd5b5061032860048036038101906103239190611899565b61076d565b60405161033591906117c7565b60405180910390f35b34801561034a57600080fd5b506103536107b5565b005b34801561036157600080fd5b5061036a6107c9565b60405161037791906118d5565b60405180910390f35b34801561038c57600080fd5b506103956107f3565b6040516103a29190611687565b60405180910390f35b3480156103b757600080fd5b506103d260048036038101906103cd9190611742565b610885565b005b3480156103e057600080fd5b506103fb60048036038101906103f69190611742565b6108eb565b604051610408919061179d565b60405180910390f35b34801561041d57600080fd5b5061043860048036038101906104339190611742565b610962565b604051610445919061179d565b60405180910390f35b34801561045a57600080fd5b50610463610985565b6040516104709190611687565b60405180910390f35b34801561048557600080fd5b506104a0600480360381019061049b919061186c565b6109a5565b6040516104ae9291906118f0565b60405180910390f35b3480156104c357600080fd5b506104de60048036038101906104d99190611742565b610a51565b6040516104eb91906117c7565b60405180910390f35b61050e6004803603810190610509919061186c565b610a76565b005b34801561051c57600080fd5b5061053760048036038101906105329190611920565b610ba9565b60405161054491906117c7565b60405180910390f35b34801561055957600080fd5b50610574600480360381019061056f9190611899565b610c30565b005b6060600380546105859061198f565b80601f01602080910402602001604051908101604052809291908181526020018280546105b19061198f565b80156105fe5780601f106105d3576101008083540402835291602001916105fe565b820191906000526020600020905b8154815290600101906020018083116105e157829003601f168201915b5050505050905090565b600080610613610cb3565b9050610620818585610cbb565b600191505092915050565b6000600254905090565b600080610640610cb3565b905061064d858285610e84565b610658858585610f10565b60019150509392505050565b60006012905090565b600080610678610cb3565b905061069981858561068a8589610ba9565b61069491906119ef565b610cbb565b600191505092915050565b6106ac611186565b6106b68282611204565b5050565b806106c43361076d565b1015610705576040517f08c379a00000000000000000000000000000000000000000000000000000000081526004016106fc90611a6f565b60405180910390fd5b61070f338261135a565b50565b6000600760008473ffffffffffffffffffffffffffffffffffffffff1673ffffffffffffffffffffffffffffffffffffffff168152602001908152602001600020600083815260200190815260200160002054905092915050565b60008060008373ffffffffffffffffffffffffffffffffffffffff1673ffffffffffffffffffffffffffffffffffffffff168152602001908152602001600020549050919050565b6107bd611186565b6107c76000611527565b565b6000600560009054906101000a900473ffffffffffffffffffffffffffffffffffffffff16905090565b6060600480546108029061198f565b80601f016020809104026020016040519081016040528092919081815260200182805461082e9061198f565b801561087b5780601f106108505761010080835404028352916020019161087b565b820191906000526020600020905b81548152906001019060200180831161085e57829003601f168201915b5050505050905090565b8061088f3361076d565b10156108d0576040517f08c379a00000000000000000000000000000000000000000000000000000000081526004016108c790611b01565b60405180910390fd5b6108da3382610608565b506108e6338383610635565b505050565b6000806108f6610cb3565b905060006109048286610ba9565b905083811015610949576040517f08c379a000000000000000000000000000000000000000000000000000000000815260040161094090611b93565b60405180910390fd5b6109568286868403610cbb565b60019250505092915050565b60008061096d610cb3565b905061097a818585610f10565b600191505092915050565b60606040518060c00160405280608e8152602001612260608e9139905090565b60066020528060005260406000206000915090508060000180546109c89061198f565b80601f01602080910402602001604051908101604052809291908181526020018280546109f49061198f565b8015610a415780601f10610a1657610100808354040283529160200191610a41565b820191906000526020600020905b815481529060010190602001808311610a2457829003601f168201915b5050505050908060010154905082565b6007602052816000526040600020602052806000526040600020600091509150505481565b60006006600083815260200190815260200160002090506000816000018054610a9e9061198f565b905011610ae0576040517f08c379a0000000000000000000000000000000000000000000000000000000008152600401610ad790611bff565b60405180910390fd5b8060010154610aee3361076d565b1015610b2f576040517f08c379a0000000000000000000000000000000000000000000000000000000008152600401610b2690611c6b565b60405180910390fd5b610b3d33826001015461135a565b6001600760003373ffffffffffffffffffffffffffffffffffffffff1673ffffffffffffffffffffffffffffffffffffffff16815260200190815260200160002060008481526020019081526020016000206000828254610b9e91906119ef565b925050819055505050565b6000600160008473ffffffffffffffffffffffffffffffffffffffff1673ffffffffffffffffffffffffffffffffffffffff16815260200190815260200160002060008373ffffffffffffffffffffffffffffffffffffffff1673ffffffffffffffffffffffffffffffffffffffff16815260200190815260200160002054905092915050565b610c38611186565b600073ffffffffffffffffffffffffffffffffffffffff168173ffffffffffffffffffffffffffffffffffffffff1603610ca7576040517f08c379a0000000000000000000000000000000000000000000000000000000008152600401610c9e90611cfd565b60405180910390fd5b610cb081611527565b50565b600033905090565b600073ffffffffffffffffffffffffffffffffffffffff168373ffffffffffffffffffffffffffffffffffffffff1603610d2a576040517f08c379a0000000000000000000000000000000000000000000000000000000008152600401610d2190611d8f565b60405180910390fd5b600073ffffffffffffffffffffffffffffffffffffffff168273ffffffffffffffffffffffffffffffffffffffff1603610d99576040517f08c379a0000000000000000000000000000000000000000000000000000000008152600401610d9090611e21565b60405180910390fd5b80600160008573ffffffffffffffffffffffffffffffffffffffff1673ffffffffffffffffffffffffffffffffffffffff16815260200190815260200160002060008473ffffffffffffffffffffffffffffffffffffffff1673ffffffffffffffffffffffffffffffffffffffff168152602001908152602001600020819055508173ffffffffffffffffffffffffffffffffffffffff168373ffffffffffffffffffffffffffffffffffffffff167f8c5be1e5ebec7d5bd14f71427d1e84f3dd0314c0f7b2291e5b200ac8c7c3b92583604051610e7791906117c7565b60405180910390a3505050565b6000610e908484610ba9565b90507fffffffffffffffffffffffffffffffffffffffffffffffffffffffffffffffff8114610f0a5781811015610efc576040517f08c379a0000000000000000000000000000000000000000000000000000000008152600401610ef390611e8d565b60405180910390fd5b610f098484848403610cbb565b5b50505050565b600073ffffffffffffffffffffffffffffffffffffffff168373ffffffffffffffffffffffffffffffffffffffff1603610f7f576040517f08c379a0000000000000000000000000000000000000000000000000000000008152600401610f7690611f1f565b60405180910390fd5b600073ffffffffffffffffffffffffffffffffffffffff168273ffffffffffffffffffffffffffffffffffffffff1603610fee576040517f08c379a0000000000000000000000000000000000000000000000000000000008152600401610fe590611fb1565b60405180910390fd5b610ff98383836115ed565b60008060008573ffffffffffffffffffffffffffffffffffffffff1673ffffffffffffffffffffffffffffffffffffffff1681526020019081526020016000205490508181101561107f576040517f08c379a000000000000000000000000000000000000000000000000000000000815260040161107690612043565b60405180910390fd5b8181036000808673ffffffffffffffffffffffffffffffffffffffff1673ffffffffffffffffffffffffffffffffffffffff16815260200190815260200160002081905550816000808573ffffffffffffffffffffffffffffffffffffffff1673ffffffffffffffffffffffffffffffffffffffff168152602001908152602001600020600082825401925050819055508273ffffffffffffffffffffffffffffffffffffffff168473ffffffffffffffffffffffffffffffffffffffff167fddf252ad1be2c89b69c2b068fc378daa952ba7f163c4a11628f55a4df523b3ef8460405161116d91906117c7565b60405180910390a36111808484846115f2565b50505050565b61118e610cb3565b73ffffffffffffffffffffffffffffffffffffffff166111ac6107c9565b73ffffffffffffffffffffffffffffffffffffffff1614611202576040517f08c379a00000000000000000000000000000000000000000000000000000000081526004016111f9906120af565b60405180910390fd5b565b600073ffffffffffffffffffffffffffffffffffffffff168273ffffffffffffffffffffffffffffffffffffffff1603611273576040517f08c379a000000000000000000000000000000000000000000000000000000000815260040161126a9061211b565b60405180910390fd5b61127f600083836115ed565b806002600082825461129191906119ef565b92505081905550806000808473ffffffffffffffffffffffffffffffffffffffff1673ffffffffffffffffffffffffffffffffffffffff168152602001908152602001600020600082825401925050819055508173ffffffffffffffffffffffffffffffffffffffff16600073ffffffffffffffffffffffffffffffffffffffff167fddf252ad1be2c89b69c2b068fc378daa952ba7f163c4a11628f55a4df523b3ef8360405161134291906117c7565b60405180910390a3611356600083836115f2565b5050565b600073ffffffffffffffffffffffffffffffffffffffff168273ffffffffffffffffffffffffffffffffffffffff16036113c9576040517f08c379a00000000000000000000000000000000000000000000000000000000081526004016113c0906121ad565b60405180910390fd5b6113d5826000836115ed565b60008060008473ffffffffffffffffffffffffffffffffffffffff1673ffffffffffffffffffffffffffffffffffffffff1681526020019081526020016000205490508181101561145b576040517f08c379a00000000000000000000000000000000000000000000000000000000081526004016114529061223f565b60405180910390fd5b8181036000808573ffffffffffffffffffffffffffffffffffffffff1673ffffffffffffffffffffffffffffffffffffffff1681526020019081526020016000208190555081600260008282540392505081905550600073ffffffffffffffffffffffffffffffffffffffff168373ffffffffffffffffffffffffffffffffffffffff167fddf252ad1be2c89b69c2b068fc378daa952ba7f163c4a11628f55a4df523b3ef8460405161150e91906117c7565b60405180910390a3611522836000846115f2565b505050565b6000600560009054906101000a900473ffffffffffffffffffffffffffffffffffffffff16905081600560006101000a81548173ffffffffffffffffffffffffffffffffffffffff021916908373ffffffffffffffffffffffffffffffffffffffff1602179055508173ffffffffffffffffffffffffffffffffffffffff168173ffffffffffffffffffffffffffffffffffffffff167f8be0079c531659141344cd1fd0a4f28419497f9722a3daafe3b4186f6b6457e060405160405180910390a35050565b505050565b505050565b600081519050919050565b600082825260208201905092915050565b60005b83811015611631578082015181840152602081019050611616565b60008484015250505050565b6000601f19601f8301169050919050565b6000611659826115f7565b6116638185611602565b9350611673818560208601611613565b61167c8161163d565b840191505092915050565b600060208201905081810360008301526116a1818461164e565b905092915050565b600080fd5b600073ffffffffffffffffffffffffffffffffffffffff82169050919050565b60006116d9826116ae565b9050919050565b6116e9816116ce565b81146116f457600080fd5b50565b600081359050611706816116e0565b92915050565b6000819050919050565b61171f8161170c565b811461172a57600080fd5b50565b60008135905061173c81611716565b92915050565b60008060408385031215611759576117586116a9565b5b6000611767858286016116f7565b92505060206117788582860161172d565b9150509250929050565b60008115159050919050565b61179781611782565b82525050565b60006020820190506117b2600083018461178e565b92915050565b6117c18161170c565b82525050565b60006020820190506117dc60008301846117b8565b92915050565b6000806000606084860312156117fb576117fa6116a9565b5b6000611809868287016116f7565b935050602061181a868287016116f7565b925050604061182b8682870161172d565b9150509250925092565b600060ff82169050919050565b61184b81611835565b82525050565b60006020820190506118666000830184611842565b92915050565b600060208284031215611882576118816116a9565b5b60006118908482850161172d565b91505092915050565b6000602082840312156118af576118ae6116a9565b5b60006118bd848285016116f7565b91505092915050565b6118cf816116ce565b82525050565b60006020820190506118ea60008301846118c6565b92915050565b6000604082019050818103600083015261190a818561164e565b905061191960208301846117b8565b9392505050565b60008060408385031215611937576119366116a9565b5b6000611945858286016116f7565b9250506020611956858286016116f7565b9150509250929050565b7f4e487b7100000000000000000000000000000000000000000000000000000000600052602260045260246000fd5b600060028204905060018216806119a757607f821691505b6020821081036119ba576119b9611960565b5b50919050565b7f4e487b7100000000000000000000000000000000000000000000000000000000600052601160045260246000fd5b60006119fa8261170c565b9150611a058361170c565b9250828201905080821115611a1d57611a1c6119c0565b5b92915050565b7f496e73756666696369656e742062616c616e6365000000000000000000000000600082015250565b6000611a59601483611602565b9150611a6482611a23565b602082019050919050565b60006020820190508181036000830152611a8881611a4c565b9050919050565b7f536f7272792c204e6f7420656e6f75676820446567656e20746f6b656e73206160008201527f7661696c61626c65000000000000000000000000000000000000000000000000602082015250565b6000611aeb602883611602565b9150611af682611a8f565b604082019050919050565b60006020820190508181036000830152611b1a81611ade565b9050919050565b7f45524332303a2064656372656173656420616c6c6f77616e63652062656c6f7760008201527f207a65726f000000000000000000000000000000000000000000000000000000602082015250565b6000611b7d602583611602565b9150611b8882611b21565b604082019050919050565b60006020820190508181036000830152611bac81611b70565b9050919050565b7f496e76616c69642072656465656d206974656d00000000000000000000000000600082015250565b6000611be9601383611602565b9150611bf482611bb3565b602082019050919050565b60006020820190508181036000830152611c1881611bdc565b9050919050565b7f496e73756666696369656e742062616c616e636520746f2072656465656d0000600082015250565b6000611c55601e83611602565b9150611c6082611c1f565b602082019050919050565b60006020820190508181036000830152611c8481611c48565b9050919050565b7f4f776e61626c653a206e6577206f776e657220697320746865207a65726f206160008201527f6464726573730000000000000000000000000000000000000000000000000000602082015250565b6000611ce7602683611602565b9150611cf282611c8b565b604082019050919050565b60006020820190508181036000830152611d1681611cda565b9050919050565b7f45524332303a20617070726f76652066726f6d20746865207a65726f2061646460008201527f7265737300000000000000000000000000000000000000000000000000000000602082015250565b6000611d79602483611602565b9150611d8482611d1d565b604082019050919050565b60006020820190508181036000830152611da881611d6c565b9050919050565b7f45524332303a20617070726f766520746f20746865207a65726f20616464726560008201527f7373000000000000000000000000000000000000000000000000000000000000602082015250565b6000611e0b602283611602565b9150611e1682611daf565b604082019050919050565b60006020820190508181036000830152611e3a81611dfe565b9050919050565b7f45524332303a20696e73756666696369656e7420616c6c6f77616e6365000000600082015250565b6000611e77601d83611602565b9150611e8282611e41565b602082019050919050565b60006020820190508181036000830152611ea681611e6a565b9050919050565b7f45524332303a207472616e736665722066726f6d20746865207a65726f20616460008201527f6472657373000000000000000000000000000000000000000000000000000000602082015250565b6000611f09602583611602565b9150611f1482611ead565b604082019050919050565b60006020820190508181036000830152611f3881611efc565b9050919050565b7f45524332303a207472616e7366657220746f20746865207a65726f206164647260008201527f6573730000000000000000000000000000000000000000000000000000000000602082015250565b6000611f9b602383611602565b9150611fa682611f3f565b604082019050919050565b60006020820190508181036000830152611fca81611f8e565b9050919050565b7f45524332303a207472616e7366657220616d6f756e742065786365656473206260008201527f616c616e63650000000000000000000000000000000000000000000000000000602082015250565b600061202d602683611602565b915061203882611fd1565b604082019050919050565b6000602082019050818103600083015261205c81612020565b9050919050565b7f4f776e61626c653a2063616c6c6572206973206e6f7420746865206f776e6572600082015250565b6000612099602083611602565b91506120a482612063565b602082019050919050565b600060208201905081810360008301526120c88161208c565b9050919050565b7f45524332303a206d696e7420746f20746865207a65726f206164647265737300600082015250565b6000612105601f83611602565b9150612110826120cf565b602082019050919050565b60006020820190508181036000830152612134816120f8565b9050919050565b7f45524332303a206275726e2066726f6d20746865207a65726f2061646472657360008201527f7300000000000000000000000000000000000000000000000000000000000000602082015250565b6000612197602183611602565b91506121a28261213b565b604082019050919050565b600060208201905081810360008301526121c68161218a565b9050919050565b7f45524332303a206275726e20616d6f756e7420657863656564732062616c616e60008201527f6365000000000000000000000000000000000000000000000000000000000000602082015250565b6000612229602283611602565b9150612234826121cd565b604082019050919050565b600060208201905081810360008301526122588161221c565b905091905056fe312e20506f6b656d6f6e205261797175617a61204e4654283130303020746f6b656e732920322e20506f6b656d6f6e205363657074696c65204e46542835303020746f6b656e732920332e20506f6b656d6f6e204b796f677265204e46542835303020746f6b656e732920342e20506f6b656d6f6e20526573686972616d204e46542835303020746f6b656e7329a26469706673582212205528c7d2512f00c80976c99d61285d8e3c979684fd4f374994a58a61b7baf6c864736f6c63430008130033",
  "linkReferences": {},
  "deployedLinkReferences": {}
}